:0300000002152ABC
:10152A0078FFE4F6D8FD9000007F007E04E4F0A383
:0A153A00DFFCDEFA75813F02157F29
:101F050075D21375D36475D11275D6BFE4F5D44374
:031F1500A90222FC
:030043000218D9C7
:1018D900C0E0C0D075D000C006C00753D2BF0537DD
:1018E900E537AE367002053614D39539EE95384092
:1018F90033753600753700AFD6EF700B753A01F5C1
:101909003B75380175392CAFD6EF64BF700AF53ACB
:10191900753B01F538753996E53A600205D6E53B20
:0D192900600215D6D007D006D0D0D0E03235
:101EED007E007F067D007B007A0079361206B8539E
:081EFD00D27FE4F5D3F5D622F3
:101ED4007E007F067D007B007A0079361206B853B7
:091EE400D27FE4F5D375D6FF228C
:071FD100121F0543D280221C
:051D0C00EF64027022EB
:101D1100F50AF50B758FC0759D50F50A750B4E854B
:101D21000B9EE50AF59575A90143A101D2A0E4FE38
:021D3100FF228F
:051D33007EFF7FFF228E
:101656008B128A138914EF64017027E5161516ACF0
:1016660015700215154C605CC299AB120514E51491
:10167600AA137002051314F91204F1F5992099DBE7
:1016860080FBEF6402703DE5217039D3E5169407BF
:10169600E5159400502E7E007F0C7D007B007A00BD
:1016A60079211206B8AE15AF1678267C007D00AB00
:1016B60012AA13A9141204CB8515228516237521A7
:0516C6000185269F22B2
:101F1800E4F58E758911758A18758CFCC28CD2A966
:031F2800D28C2236
:061F2B00043C0000000070
:0A1F9300E4F53FF53EF53DF53C2274
:101EA000AF3FAE3EAD3DAC3CEF2401F53FE43EF527
:0A1EB0003EE43DF53DE43CF53C2224
:091FA700AF3FAE3EAD3DAC3C2263
:101E4D008F0D8E0C8D0B8C0A121FA712064EAF0D27
:0C1E5D00AE0CAD0BAC0A9000040206684D
:101CAC008B0A8A0B890C90000412061E12068CC338
:101CBC00E53F9BFBE53E9AFAE53D99F9E53C98F842
:101CCC00C31205E7E440047F018001FFFEFDFC2206
:031E1300E4FFFEEB
:101E1600EF1FAA0670011E4A600FE4FDEDD3940081
:091E26007480948040EA1D80F3F1
:011E2F002290
:091FB0001205AFFFAEF0021F6242
:101813008B118A1289131205AFFFAEF07B017A0098
:10182300E4FDFC121D64121E13AB11AA12A91312BC
:1018330005AFFFAEF07B017A007D017C00121D64D1
:10184300121E13AB11AA12A9131205AFFFAEF0E4D7
:10185300FBFAFDFC121D64E4FFFE121E16AB11AA77
:1018630012A9131205AFFFAEF0E4FBFA7D01FC12DF
:081873001D64E4FFFE021E16D5
:06122500AB0AAA0BA90CA4
:08122B008B118A1289138D1446
:10123300E4F515C3E515940874809480506EE514A5
:10124300AB11AA12A91330E70D1205AFFFAEF07B65
:10125300017A00E480091205AFFFAEF0E4FBFAFD6A
:10126300FC121D64E51425E0F514E4FFFE121E16BE
:10127300AB11AA12A9131205AFFFAEF07B017A00DE
:101283007D017C00121D64E4FFFE121E16AB11AA41
:1012930012A9131205AFFFAEF0E4FBFA7D01FC12B5
:1012A3001D64E4FFFE121E1605158087AB11AA12FA
:1012B300A9131205AFFFAEF0E4FDFC121EBAAB1189
:1012C300AA12A9131205AFFFAEF07B017A007D01CC
:1012D3007C00121D64E4FFFE121E16AB11AA12A9B4
:1012E300131205AFFFAEF0E4FDFC121E69EF4E6072
:1012F30005E4F5168003751601AB11AA12A91312A2
:1013030005AFFFAEF0E4FBFA7D01FC121D64E4FFC0
:10131300FE121E16AB11AA12A9131205AFFFAEF0EF
:0B1323007D017C00121EBAAF167E0098
:01132E00229C
:101936008B118A1289131205AFFFAEF0E4FBFA7D14
:1019460001FC121D64E4FFFE121E16AB11AA12A9B9
:10195600131205AFFFAEF07B017A007D017C001209
:101966001D64E4FFFE121E16AB11AA12A91312057E
:10197600AFFFAEF07B017A00E4FDFC121D64E4FFCC
:0B198600FE121E167FE87E03021E16F4
:10173C008B118A1289131205AFFFAEF07B017A0070
:10174C00E4FDFC121D64E4FFFE121E16AB11AA127E
:10175C00A9131205AFFFAEF07B017A007D017C006E
:10176C00121D64E4FFFE121E16AB11AA12A913126D
:10177C0005AFFFAEF0E4FBFA7D01FC121D64E4FF43
:10178C00FE121E16AB11AA12A9131205AFFFAEF072
:0E179C00E4FBFAFDFC121D64E4FFFE021E16C3
:0613EA008B118A12891329
:1013F000E4F5141205AFFFAEF0E4FDFC121EBAE4F2
:10140000FFFE121E16E4F515C3E5159408748094CA
:10141000805061AB11AA12A9131205AFFFAEF07B89
:10142000017A007D017C00121D64E4FFFE121E168D
:10143000AB11AA12A9131205AFFFAEF0E4FDFC1226
:101440001E69EF4E600FAF15A8077480088002C3B5
:1014500013D8FC4214AB11AA12A9131205AFFFAEA8
:10146000F0E4FBFA7D01FC121D64E4FFFE121E167F
:1014700005158094AB11AA12A9131205AFFFAEF0A7
:091480007D017C00121EBAAF14BC
:011489002240
:101B34008D0D8B0A8A0B890C121813AB0AAA0BA9F8
:101B44000CAD0D12122BEF4EAB0AAA0BA90C7007A9
:101B5400121936E4FEFF221213EAAB0EAA0FA910E3
:101B6400EF12050AAB0AAA0BA90C12173CAB0AAA7E
:0B1B74000BA90C1219367E007F012225
:101BC9008D0D8B0A8A0B890C121813AD0D12122573
:101BD900EF4E7008AB0AAA0BA90C800FAD0E1212BA
:101BE90025EF4EAB0AAA0BA90C7007121936E4FEB1
:101BF900FF2212173CAB0AAA0BA90C1219367E0058
:031C09007F012236
:0F1F6200EF4E70064391304390307E007F012296
:101EBA00EF4E7012ED4C70055391DF8009ED64010D
:0A1ECA004C7003439120E4FEFF2258
:101D6400EF4E7020ED4C700CEB4A6004D295801459
:101D7400C2958010ED64014C700AEB4A6004D29461
:081D84008002C294E4FEFF227C
:101E6900EF4E7014ED4C7004A2958008ED64014C9E
:0C1E79007006A294FE33FF22E4FEFF225C
:0800030012148A12077280FB3F
:041F3100021E00008C
:101E3000439A0243A1FC43D90353A23FD2A7D2D96C
:0D1E4000D2D8D2A2D2A5D2A4D2A3D28122A0
:1017AA0090005FE064017014D2D8C2A7C2A2121ED0
:1017BA00ED900062E054FBF04402803A90005FE052
:1017CA0064027017D2A2D2A7C2D8121EED121ED47A
:1017DA00900062E054FDF04404801BD2A2D2A7D24A
:1017EA00D8121EED900078E06003121FD1900062BB
:1017FA00E04402F04404FFF07B017A007992900001
:09180A0094E0FD8F0E121BC922AF
:100ABC0090005EE07003020B81900062E0A3F09066
:100ACC000078E09000626008E054FEF0C2D9800625
:100ADC00E04401F0D2D990005FE0FD7C00701090F2
:100AEC000062E04402F04404F0D2D8D2A2802CED93
:100AFC0064014C7010900062E04402F054FBF0C2B0
:100B0C00A2D2D8801690005FE06402700E90006252
:100B1C00E054FDF04404F0D2A2C2D8900079E06415
:100B2C0001700BC2A4900062E054EFF08009D2A4D3
:100B3C00900062E04410F090007AE06401700BC207
:100B4C00A5900062E054F7F08009D2A5900062E015
:100B5C004408F0C281C2A3900062E054DFF044402C
:100B6C00FFF07B017A007992900094E0FD8F0E12D9
:100B7C001BC9020C6890007DE0603DE4F09000849D
:100B8C0004F0E490008AF0A3F0900062F0900078FA
:100B9C00F0900062E044BFFFF07B017A0079929004
:100BAC000094E0FD8F0E121BC9D2D9D2D8D2A2D29A
:100BBC00A5D2A4D2A3D28122900063E0900062F06F
:100BCC0090005FE0FD7C007010900062E04402F049
:100BDC004404F0D2D8D2A2802CED64014C70109059
:100BEC000062E04402F054FBF0D2D8C2A28016900E
:100BFC00005FE06402700E900062E054FDF044046B
:100C0C00F0C2D8D2A2900079E06401700BC2A4901B
:100C1C000062E054EFF08009D2A4900062E044102E
:100C2C00F090007AE06401700BC2A5900062E05471
:100C3C00F7F08009D2A5900062E04408F07B017ABD
:100C4C00007992900094E0FD900063E0F50E121B89
:100C5C00C9D281D2A3900062E04420F090007C7451
:0A0C6C0001F0E490008AF0A3F022EA
:10187B0090005EE0705790007C04F0900078E07070
:10188B001A900062E054FEF09000787401F0C2D917
:10189B0090005FE0701C121FD18017900062E04433
:1018AB0001F0D2D9E4900078F090005FE070031261
:1018BB001EED7B017A007992900094E0FD9000621E
:0E18CB00E0F50E121BC9E490008AF0A3F02293
:1019910090005EE0705390007C04F0900079E06468
:1019A100019000626019E054EFF09000797401F049
:1019B100900080F0E490008EF0A3F0C2A4800FE0CC
:1019C1004410F0D2A4E4900079F0900080F07B0103
:1019D1007A007992900094E0FD900062E0F50E1299
:0A19E1001BC9E490008AF0A3F02275
:1019EB0090005EE0705190007C04F090007AE090E3
:1019FB0000627019E054F7F090007A7401F09000D7
:101A0B0081F0E4900090F0A3F0C2A5800FE04408B1
:101A1B00F0D2A5E490007AF0900081F07B017A007F
:101A2B007992900094E0FD900062E0F50E121BC9D4
:081A3B00E490008AF0A3F02200
:03003E00020ABCF7
:101C0C0090005EE0703190007C04F090005FE06426
:101C1C000260117402F090008214F0E4900086F0DF
:101C2C00A3F08009E490005FF0900082F01217AAF4
:081C3C00E490008AF0A3F022FD
:031FD8000219EB00
:031FDB0002199157
:101CDC0090005EE0702990007C04F090005FE0645E
:101CEC000160107401F0900083F0E4900088F0A380
:101CFC00F08009E490005FF0900083F01217AA22A4
:031FDE0002187B6B
:041C4400AD07AC0636
:101C4800750A55750B01ECF50CEDF50DE50A250B3C
:101C5800250C250DF50E750F0D75100A7B007A0001
:101C6800790A7515007516077F02121656E4FEFFED
:011C78002249
:10111500900045E020E703021224547FF0120DAE43
:10112500900061EFF01470030211E124FD700302D9
:1011350011D124FC70030211C124F8606F24F06002
:101145005B24E060030211F1900065E06440601AE1
:101155007440F07B017A0079667FDC7E057D007C3A
:1011650000121E4D90005C7401F07B017A007966D7
:10117500121CACEC4D4E4F700302122190005CE046
:101185007003021221E4F090005EE0700404F08028
:1011950005E490005EF012003E021221900065E029
:1011A500642060787420F0121FDB8070900065E089
:1011B500641060687410F0121FD88060900065E0BC
:1011C500640860587408F0121CDC8050900065E0DB
:1011D500640460487404F0121C0C8040900065E0C3
:1011E500640160387401F0121FDE8030900065E004
:1011F500602AE4F07B017A007992900094E0FD90FA
:101205000062E0F50E121BC9E490005CF090007BD3
:10121500E06009A37401F0E490007BF0121FE42262
:10148A00121E30121F05121EED7F02121D0C121FB2
:10149A0018121F93E4F508F509AE08E5097802C3A6
:1014AA0033CE33CED8F9FF2492F58274003EF58309
:1014BA00E508F0A3E509F04508701A74952FF5823E
:1014CA0074003EF583745BF074942FF58274003EC9
:1014DA00F583745AF074922FF974003EFA7B011264
:1014EA001FB00509E50970020508C39401E50864FF
:1014FA0080948040A4439280900062E044BFFFF051
:10150A007B017A007992900094E0FD8F0E121BC93C
:0F151A001216CB90007C7401F0900084F0D2AFD9
:01152900229F
:1007720075CF10121115309703020847900095E0CB
:10078200FD750E01750F007510607B017A0079927C
:10079200121B34900060E014605A14603724FE602B
:1007A2004324F4605F24F0606B2418707790006437
:1007B200E0640870030208477408F07B017A00794C
:1007C2006E7FDC7E057D007C00121E4D90005D7404
:1007D20001F08071900064E0640260697402F012BA
:1007E2001C0C8061900064E0640460597404F0128F
:1007F2001FDE8051900064E0640160497401F012D0
:100802001CDC8041900064E0641060397410F012C6
:100812001FDB8031900064E0642060297420F012B4
:100822001FD88021900064E0601BE4F07B017A0015
:100832007992900094E0FD900062E0F50E121BC9DF
:10084200E490005DF07B017A00796E121CACEC4DF5
:100852004E4F601890005DE06012E4F0A3E0700477
:1008620004F08005E490005EF012003E900085E006
:10087200601F7B017A007992900094E0FD90006203
:10088200E0F50E121BC9E4900085F090008CF0A3F5
:0A089200F090007CE07003020935CD
:10089C00E4F508F509F0900078E06401700853095C
:1008AC00FD430901800C900078E070065309FE436B
:1008BC00090290005FE06401700B5309F75309FBC8
:1008CC00430910801C90005FE06402700B5309FB1D
:1008DC005309EF43090880095309EF5309F74309FA
:1008EC0004900079E0640170085308DF430810801D
:1008FC000C900079E070065308EF43082090007AC2
:10090C00E06401700853087F430840800C90007924
:10091C00E070065308BF430880900076E508F0A30A
:09092C00E509F0FFAE08121C44BD
:1009350090007FE06011E4F090007EF0900076E09A
:10094500FEA3E0FF121C44C3900089E094109000C0
:1009550088E0940E403890005FE064017030F090BC
:10096500007C04F0D2A2D2A7900078E06005121FA7
:10097500D18003121EED900062E04404FFF07B017C
:100985007A007992900094E0FD8F0E121BC9C390F6
:100995000087E09420900086E0941C403890005F2A
:1009A500E064027030F090007C04F0D2D8D2A790B9
:1009B5000078E06005121FD18003121EED900062E1
:1009C500E04402FFF07B017A007992900094E0FD0B
:1009D5008F0E121BC9C390008FE0940890008EE023
:1009E50094074028900079E064017020F090007C25
:1009F50004F0D2A4900062E04410FFF07B017A007D
:100A05007992900094E0FD8F0E121BC9C39000915E
:100A1500E09410900090E0940E402A90007AE064F3
:100A2500017022F090007C04F0D2A5D2A79000625C
:100A3500E04408FFF07B017A007992900094E0FD94
:100A45008F0E121BC9C390008BE0944090008AE082
:100A55009438406290007DE0705C04F090005EF098
:100A650090007CF0E490005FF0900078F090007BBF
:100A7500F0900065F0C2A3D2D9D2D8D2A2D2A5D225
:100A8500A4C281121EEDD2A7E4900062F0F07402B8
:100A9500F04404F04408F04410F04401F04440F000
:100AA500A3F07B017A007992900094E0FD900062BA
:070AB500E0F50E121BC9223F
:03003B00021B7F26
:0D1B7F00C0E0C0D075D000C000C006C00797
:101B8C00751D00E59D30E12A539DFDE52324FFFFE3
:101B9C00E52234FFFEEFB5250BEEB52407752100C9
:101BAC00D2A0800E0525E525700205242426F8E632
:021BBC00F59F93
:0B1BBE00D007D006D000D0D0D0E0321D
:03000B00020C766E
:100C7600C0E0C0F0C083C082C0D075D000C000C044
:0D0C860001C002C003C004C005C006C007C5
:100C9300758A18758CFC121EA0051FE51FAE1E7009
:100CA30002051E14D394E8EE94035003020D587505
:100CB3001E00751F00900083E0601A900088E475A1
:100CC300F001120599FED3E5F09410EE940E400561
:100CD300900083E4F0900082E0601A900086E4754F
:100CE300F001120599FED3E5F09420EE941C400523
:100CF300900082E4F0900084E0601A90008AE4752A
:100D0300F001120599FED3E5F09440EE94384005C6
:100D1300900084E4F0900080E0601A90008EE47507
:100D2300F001120599FED3E5F09408EE940740050F
:100D3300900080E4F0900081E0601A900090E475E8
:100D4300F001120599FED3E5F09410EE940E4005E0
:100D5300900081E4F090007FE0701590007EE0FF4A
:100D630004F0C3EF94C8748094804004A37401F02A
:100D7300900085E0701A90008C75F001120599FEC1
:100D8300D3E5F094B8EE940B40069000857401F01F
:100D9300D007D006D005D004D003D002D001D000B4
:0B0DA300D0D0D082D083D0F0D0E0325E
:101A96000000000000000005000A0BB800C8006442
:101AA60000020000000000040000FFFFFFFFFFFF30
:101AB6000014022604081105007C022604080E05FF
:101AC600006C022604080E05006A022604081005AA
:101AD6000067022604081205007002260408130592
:021AE600005F9F
:041F350041005B000C
:0B1F7D00901AA0E493FE740193FF2271
:0B1F8800901AA4E493FE740193FF2262
:081FB900901A9E740193FF22AF
:031FE1007F01225B
:101D3800AD07ED75F008A424BEF582E4341AF583E6
:101D4800E493FEED75F008A424BFF582E4341AF597
:0C1D580083E4937C002400FFEC3EFE229C
:101F3E00EF75F008A424BBF582E4341AF583E4931C
:021F4E00FF2270
:081FC100901A98740193FF22AD
:101F5000EF75F008A424BCF582E4341AF583E49309
:021F6000FF225E
:081FC900900000E0C313FF22A9
:0A1F9D00900000E075F00384FF22BD
:10004600121D38EF7803C333CE33CED8F9FF7C00C8
:050056007D0A02052EE9
:101A4300E4FBFAF50DF50CF50BF50A750D7DF50CB8
:101A5300F50BF50AEBC39417748094805032AF0DE5
:101A6300AE0CAD0BAC0A78011205F88F0D8E0C8D00
:101A73000B8C0A30D71774132AF582E43400F583EC
:101A8300EBF00AEAC394067480948050030B80C47D
:021A93008A3592
:011A9500222E
:10000E00EF1460121460141460111460152404703F
:10001E0019901AB88008901AB98003901ABAE4930E
:0D002E00FF22901AAA740193FF227F002286
:101DD600901A9C740193900000F0901AB6740193C7
:0F1DE600900048F0121A43E4900046F0A3F02258
:100DAE00E4F50AF50EF50DF50CF50BF512F511F54A
:100DBE0010F50F121FE75003020ECA121DB18F0E4F
:100DCE008E0D8D0C8C0BE4FBEBC395355047AF0E9F
:100DDE00AE0DAD0CAC0B78011205F88F0E8E0D8D8D
:100DEE000C8C0B30D72CE47F01FEFDFC74132BF51D
:100DFE0082E43400F583E0F9F812060BE5124FF5A4
:100E0E0012E5114EF511E5104DF510E50F4CF50FED
:100E1E00050A0B80B3AF0A7E00C3EF940274809470
:100E2E00804018D200EF9403748094804005121F06
:100E3E00EA8008121FC1EF6002C20020002CE4FFFE
:100E4E00FEFDFCAB12AA11A910A80FC31205E76094
:100E5E0010900047E004F07006900046E004F08029
:100E6E0020E4900046F0A3F08017900044E004F0D8
:100E7E007006900043E004F0E4F512F511F510F55C
:100E8E000F121F7DD3900047E09F900046E09E40DA
:100E9E000A121FEAE4900046F0A3F0D3900044E05B
:100EAE00942C900043E09401401D121FEA90005BC9
:100EBE007401F0E4900043F0A3F0800B901AA6E4C6
:0F0ECE00740193FF120EDEAF12AE11AD10AC0F18
:010EDD0022F2
:041F390041009C00C7
:100FFD0075F0029000491206ACE0FEA3E0FFE51586
:10100D0075F0029000190206ACE51475F00290001F
:10101D00010206ACE51475F0029000310206AC74C5
:10102D00252518F582E43400F58322D3E5169FEECD
:10103D006480F8E51564809822743D2514F582E4EA
:10104D003400F58322D3FFED9FEE6480F8EC6480CD
:10105D00982274552514F582E43400F58322E004BA
:10106D00F0740D2514F582E43400F58322E5157531
:10107D00F0029000490206ACFEC3E5179FEE6480B6
:10108D00F8E51664809822E5305534FFE52F553389
:10109D00FEE52E5532FDE52D5531FC22742B251420
:1010AD00F582E43400F58322E4F0FFFEFDFCAB3065
:1010BD00AA2FA92EA82DC30205E77E00900098E067
:1010CD00FCA3E0FD12051C8EE78FE622E0FEA3E0F7
:1010DD00FF75F00222A4FFE0C39FE5F06480F87471
:1010ED00809822900048E0FB3395E0FAEBAE0222A7
:1010FD00E0FCA3E0FDEF22E0FCA3E0C39F22900003
:08110D0048E0FF3395E0FE22EB
:0C1F7100EF4E6007EF1F70F81E80F52295
:03005B000215C4C7
:1015C400C0E0C0F0C083C082C0D075D000C000C0ED
:0D15D40001C002C003C004C005C006C0076E
:1015E100C20290009DE012100DE5E5F0A3E5E4F0E4
:1015F10090009DE004F0E0C39535400BE4F09000CD
:1016010045E04480F08002D20290009DE0FF121F6D
:101611003E1210C790009DE0FF121F50E5E254807A
:101621004FF5E290009DE02413F582E43400F58348
:0A163100E04480F5E8300202D2EE3A
:10163B00D007D006D005D004D003D002D001D00003
:0B164B00D0D0D082D083D0F0D0E032AD
:1016CB00D2AF75E880C201E490009DF0900045F028
:1016DB00121DD6E4FF12000EEF2401FDE433FC7E55
:1016EB000B7FB812052E900098EEF0A3EFF0E4FFFD
:1016FB00121F3E1210C77F0212000EEFC454F0FEF1
:10170B00C006E4FF12000ED0E02FF5E17F031200BC
:10171B000EE5E254804FF5E27F0112000E8FE312CB
:10172B001AE843A910900013E042E8121C79021E3C
:01173B008528
:031FE400D2EE2218
:101D8C00E4FD900045E0547FF0D2EE900045E02059
:101D9C00E7127FE87E03121F7143CF100DEDC39441
:041DAC003240E822B7
:011DB0002210
:101C7900750A10121D8CAF0A150AEF70F6121DF5C0
:101C8900121FB98F0A121D8CE4F50BE50BC39535AC
:101C99005009AF0B12132F050B80F0AF0A150AEF8D
:021CA90070E3E6
:011CAB002216
:101E8500E4FFEFC395355012EF12100D1210FD123D
:0A1E95001018ECF0A3EDF00F80E848
:011E9F002220
:101DB100E490009EF0F513E513C39535500EAF1373
:101DC10012132FAF1312005E051380EBAF30AE2F4D
:041DD100AD2EAC2D5A
:011DD50022EB
:02005E008F14FD
:10006000E4F51C75F002EF12101B1210D9E5141202
:100070001010121104F516EC9EF515E47F01FEFD3B
:10008000FCA914A80112060B8F348E338D328C31EB
:10009000AF14121D388E1A8F1BC3E516951BE51A77
:1000A00012103D40057517018003E4F517E517644C
:1000B0000160030201E574252514121030E0C39499
:1000C000FA500A74252514121030E004F01210942E
:1000D000E4FBFAF9F8C31205E760030201C89000D7
:1000E00000E0F519121FE1EF6028E4F517F518E5B7
:1000F00018C39535500F12102CE0C394014002052F
:1001000017051880EAE517C394034006740F2519F4
:10011000F51974252514121030E0C3951950030207
:1001200001C8E4F517121FC1EF7051F518E518C3A7
:100130009535501AE51465186010121F9D12102C89
:10014000E0C39F40057517018004051880DF121F6A
:10015000E1EF7052E517704EF518E518C39535506C
:1001600045E51465186011121F9D742B2518121097
:10017000ADE0C39F4002802B051880DE121FE1EF27
:100180007024F519F518E518C39535500F12102C89
:10019000E0C3940240020519051880EAE519C394EA
:1001A000034003751701E517B40102D200E530459D
:1001B00034FFE52F4533FEE52E4532FDE52D453173
:1001C0008F308E2F8D2EF52D121046E4F012105F19
:1001D000E4F0121021E4F0A3F0740D2514F582E48C
:1001E00034000203B8AF141200461210384008124F
:1001F00010A9E004F0800B90009EE004F01210A91A
:10020000E4F012110BC3E49FFDE49EFCC3E5169DD0
:10021000EC12103D40661210385061121046E41284
:10022000106D1210B56003020325121021E515852B
:1002300016F0120583121F88121021E0FCA3E0C300
:100240001210554009121016E475F0018021121F9A
:1002500088C3E49FFFE49EFE121021E0FCA3E0C3EC
:10026000121055400302032512101674FFF5F01208
:100270000583121021E4F0A3F0020325900048E06A
:10028000FFFD3395E0FCC3E49DFDE49CFCC3E51653
:100290009DEC12103D505712104612106BE4F012F4
:1002A0001046E0FE75F00A84E5F07034EEC3946405
:1002B000400E121046E4F0D20190005B04F0802062
:1002C000121016C083C0821210FDA2E713FF3395EF
:1002D000E0FEC3ED9FFFEC9ED082D083F0A3EFF051
:1002E000900097E06514703D74FFF0020325121131
:1002F0000B121038402F1210461210B57027121032
:100300006E12106BE0B4201D12106EE4F0900048E5
:10031000E0A2E713A2E713FF3395E0FE121016EEFA
:100320008FF01205831210944D4E4F70030203C4D8
:10033000E51BAE1A7802CEA2E713CE13D8F8FFC39E
:10034000E51B9FFFE51A9EFEC3121039506F121075
:100350005FE004F0121FC98F19E4F518E518C39582
:1003600035500F12102CE0C39401400205170518F8
:1003700080EAE517C394034006900000E0F51912E7
:10038000105FE0C39519407212105FE4F0AF34AE15
:1003900033AD32AC311205DAE5305FFFE52F5EFE9A
:1003A000E52E5DFDE52D5C8F308E2F8D2EF52D74A5
:1003B000252514F582E43400F583E4F02212105F61
:1003C000E014F02274252514121030E4F0E5351401
:1003D0006514702690009EE0C39535401DE4F51825
:1003E000E518C39535500D12102CE0600375170108
:0A03F000051880ECE5177002C2004A
:0103FA0022E0
:101DF500E4FFEFC39535501575F002EF1210101280
:0D1E050010FD12107CECF0A3EDF00F80E555
:011E120022AD
:02132F008F1518
:10133100EF120FFD121104F517EC9EF516AF151201
:101341001D38AD07AC06D3E5179DEC12108B500B81
:10135100C3E49DFFE49C121085500B12100BE0FEBC
:10136100A3E0FF0213D7ECA2E713FEED13FFD312A4
:101371001087500BC3E49FFFE49E12108550271283
:10138100107AE0FCA3E0FDECC313FEED13FFC3ED07
:101391009FFDEC9EFC12100BE0C313FEA3E0132D86
:1013A100FFEC3EFE803012107AE0FCA3E0FDAE04BB
:1013B1007803CEC313CE13D8F9FFC3ED9FFDEC9E86
:1013C100FC12100BE0FEA3E07803CEC313CE13D8BA
:1013D100F92DFFEC3EFE12107AEEF0A3EFF0E515C9
:0813E100120FFDEEF0A3EFF086
:0113E90022E1
:031FE700A2012232
:031FEA00D20122FF
:101AE800E4FFEFC39535502B74252F121030E4F026
:101AF800743D2F12104AE4F074552F121063E4F06D
:101B0800EF121023E4F0A3F0742B2F1210ADE4F0C1
:101B18000F80CFE4F530F52FF52EF52D9000977452
:0B1B2800FFF0E490009AF0A3F0C2016F
:011B3300228F
:020EDE008F1370
:100EE00090009CE0C394034035E4F090005BE07018
:100EF00022F514E514C39535501975F002E5141266
:100F0000107F1210D9E51412101BEEF0A3EFF005BC
:100F10001480E0121AE8C201E490005BF022900015
:100F200096E004F0E0B51308121DF5E4900097F088
:100F3000900096E0D395135003020FFCE4F514E5FE
:100F400014C39535507A75F002E51412107F121013
:100F5000D9E514121010121104FFEC9EAD07FC909D
:100F6000005BE070291210F07802C333CE33CED884
:100F7000F91210524040E49BFFE49AFEEF7802C35E
:100F800033CE33CED8F9C3121053502A8032121008
:100F9000F07803C333CE33CED8F91210524017E4A1
:100FA0009BFFE49AFEEF7803C333CE33CED8F9FF2C
:100FB000C3121054400AAF1412132F0514020F3F2E
:100FC000E514B53506900097E004F0E51375F008D8
:100FD0009000961210E24024E4F0C20090009CE0E1
:100FE00004F0E51375F0049000971210E2400DE450
:0C0FF00090009CF0121E85121AE8C2014D
:010FFC0022D2
:10154400020003E493A3F8E493A34003F68001F2BA
:1015540008DFF48029E493A3F85407240CC8C333A8
:10156400C4540F4420C8834004F456800146F6DF77
:10157400E4800B0102040810204080901F2BE47EBD
:10158400019360BCA3FF543F30E509541FFEE4936C
:10159400A360010ECF54C025E060A840B8E493A333
:1015A400FAE493A3F8E493A3C8C582C8CAC583CA5E
:1015B400F0A3C8C582C8CAC583CADFE9DEE780BE16
:011F3D0000A3
:1003FB00E709F608DFFA8046E709F208DFFA803EE4
:10040B0088828C83E709F0A3DFFA8032E309F608D0
:10041B00DFFA8078E309F208DFFA807088828C8338
:10042B00E309F0A3DFFA806489828A83E0A3F608EC
:10043B00DFFA805889828A83E0A3F208DFFA804CC6
:10044B0080D280FA80C680D4806980F2803380109D
:10045B0080A680EA809A80A880DA80E280CA803306
:10046B0089828A83ECFAE493A3C8C582C8CCC5837E
:10047B00CCF0A3C8C582C8CCC583CCDFE9DEE7804E
:10048B000D89828A83E493A3F608DFF9ECFAA9F0CD
:10049B00EDFB2289828A83ECFAE0A3C8C582C8CC23
:1004AB00C583CCF0A3C8C582C8CCC583CCDFEADE3C
:1004BB00E880DB89828A83E493A3F208DFF980CC9E
:1004CB0088F0EF60010E4E60C388F0ED2402B40497
:1004DB000050B9F582EB2402B4040050AF2323453E
:0604EB00822390044B7314
:1004F100BB010689828A83E0225002E722BBFE0209
:09050100E32289828A83E493223B
:10050A00BB010689828A83F0225002F722BBFE01D0
:02051A00F322CA
:10051C00EF8DF0A4A8F0CF8CF0A428CE8DF0A42EF3
:02052C00FE22AD
:10052E00BC000BBE0029EF8DF084FFADF022E4CCB1
:10053E00F875F008EF2FFFEE33FEEC33FCEE9DEC7A
:10054E00984005FCEE9DFE0FD5F0E9E4CEFD22EDC0
:10055E00F8F5F0EE8420D21CFEADF075F008EF2F0A
:10056E00FFED33FD4007985006D5F0F222C398FDFB
:05057E000FD5F0EA2298
:10058300C5F0F8A3E028F0C5F0F8E5821582700203
:060593001583E038F022A0
:10059900A3F8E0C5F025F0F0E58215827002158315
:0605A900E0C838F0E82272
:1005AF00BB010A89828A83E0F5F0A3E02250068717
:1005BF00F009E71922BBFE07E3F5F009E3192289D9
:0B05CF00828A83E493F5F0740193220C
:0D05DA00CFF4CFCEF4CECDF4CDCCF4CC22B6
:1005E700EB9FF5F0EA9E42F0E99D42F0E89C45F06A
:0105F70022E1
:1005F800E8600FECC313FCED13FDEE13FEEF13FFE1
:03060800D8F12204
:10060B00E8600FEFC333FFEE33FEED33FDEC33FC4D
:03061B00D8F122F1
:10061E00BB010DE58229F582E5833AF5830206F0EA
:10062E005007E92582F80206E4BBFE07E92582F8A9
:10063E000206FCE58229F582E5833AF58302070876
:10064E00BB010789828A8302075A5005E9F802071F
:0A065E004EBBFE05E9F80207662214
:10066800BB010DE58229F582E5833AF58302075A35
:100678005007E92582F802074EBBFE07E92582F8F4
:0406880002076622DD
:10068C00BB010789828A830207255005E9F8020716
:10069C0018BBFE05E9F802073189828A8302073EFE
:0C06AC00A42582F582E5F03583F5832259
:1006B800EF4E6012EF60010EEDBB010B89828A8359
:1006C800F0A3DFFCDEFA2289F05007F709DFFCA966
:0C06D800F022BBFEFCF309DFFCA9F022BD
:0C06E400E6FC08E6FD08E6FE08E6FF2242
:0C06F000E0FCA3E0FDA3E0FEA3E0FF227D
:0C06FC00E2FC08E2FD08E2FE08E2FF223A
:10070800E493FC740193FD740293FE740393FF2237
:0D071800E6FB08E6F908E6FA08E6CBF82251
:0C072500E0F8A3E0F9A3E0FAA3E0FB2257
:0D073100E2FB08E2F908E2FA08E2CBF82248
:10073E00E493F8740193F9740293FA740393FB2211
:0C074E00ECF608EDF608EEF608EFF622D7
:0C075A00ECF0A3EDF0A3EEF0A3EFF02212
:0C076600ECF208EDF208EEF208EFF222CF
:00000001FF
